:020000040800F2
:1000000008040020A50900089109000893090008C8
:1000100000000000000000000000000000000000E0
:100020000000000000000000000000009709000828
:100030000000000000000000990900089B0900086A
:100040009F0700086F0900087B090008A309000842
:10005000C1090008C3090008C5090008C70900084C
:10006000C9090008CB090008CD090008CF0900081C
:10007000D1090008D3090008D5090008D7090008EC
:10008000D9090008DB09000800000000DD090008AC
:10009000DF090008E1090008E3090008E509000894
:1000A000E7090008E9090008EB090008ED09000864
:1000B000EF09000800000000F1090008000000003E
:1000C000F0B502000B0052B2002A21D552B210073F
:1000D000000F0838800804214843494952B21407E8
:1000E000240F083CA40804256C43454D2C59FF25DA
:1000F0009607B60F08277E43B540AC439B01DBB2A1
:100100009207920F08256A43934023430B501CE04B
:1001100052B210008008042148433A490858FF2190
:100120009407A40F08256C43A14088439901C9B2E4
:1001300093079B0F082463439940014352B2100078
:100140008008042250432F4A1150F0BD80B5411E53
:1001500080225204914201D301200EE0401E2A4920
:10016000086003210020C043FFF7AAFF27480021B1
:100170000160274807210160002002BD00B583B05F
:100180000121A020000300F0D3F9C02080000090DE
:1001900068460121417168460121017168460021CC
:1001A000817169461B4800F017FA012000906846EB
:1001B0000021017169469020C00500F00DFA07BDCD
:1001C000AD480068401EAC490860704700B50100AA
:1001D000481E0029FBD100BD10B50400A748FFF759
:1001E000B5FFA5480460A4480068A042FBD0A4481D
:1001F000FFF7ACFFA04800680028FBD110BD00004D
:100200001CED00E000E400E014E000E018E000E095
:1002100010E000E000080048F8B500240626684613
:1002200000210170FFF7AAFF25E0964800688003CF
:1002300003D4FA208000FFF7C9FF924800688003CA
:1002400002D49148FFF7C2FF8E480068800303D4B0
:100250008E488021490001608A480068800302D4EA
:100260008948FFF7B3FF87480068800303D48848B4
:10027000802149000180834800688003D5D58448E7
:1002800080214900018083480021016000218020F5
:10029000400200F013F9012000F01DF925E0794833
:1002A0000068800103D4FA208000FFF78FFF7548B3
:1002B0000068800102D47448FFF788FF7148006825
:1002C000800103D471488021490001606D480068B5
:1002D000800102D46C48FFF779FF6A48006880010A
:1002E00003D46B4880214900018066480068800182
:1002F000D5D5022000F002F900F00BF90828FBD157
:1003000001218020400500F023F9012000F0C2F90E
:10031000200080246400044301260027FFE7012118
:100320009020C00500F0A9F9002821D06846007887
:1003300000282ED13220FFF74FFF01219020C00569
:1003400000F09BF9002824D06846012101704F4835
:10035000802149000160FA208000FFF73DFF4C48F2
:10036000802149000180761C032E12D1002610E066
:100370006846007801280CD13220FFF72DFF0121BB
:100380009020C00500F079F9002802D168460021CC
:100390000170002500E06D1CEDB20A2D0DDA0A2077
:1003A000FFF71AFF01219020C00500F066F9002830
:1003B000F1D0684600780028EDD1EDB20A2DAEDB11
:1003C0007F1C3C2C01D2641C13E0802C11D23C2CED
:1003D0000FD3212000F0CEF8002803D12000802484
:1003E000044303E02000802464000443002000F064
:1003F00053F8022E0BD1F80704D424488021890039
:1004000001601FE022488021890001801AE0012E4E
:1004100014D13800042100F055F9022903D11B48FA
:100420008021890001603800042100F04BF9002987
:1004300008D1174880218900018003E014488021F9
:1004400089000180200600D469E73800142100F0FB
:1004500039F90A2903D10D4880214900016038008B
:10046000142100F02FF9002900D058E70848802116
:100470004900018053E7000000000020A25D000059
:10048000C05D00000010024040420F001808004804
:1004900028080048002002402249096801229143AF
:1004A000204A11601F490968042291431D4A1160C6
:1004B0001C49096808431B4908607047184A1268BC
:1004C000194B1340164A1360154A12680143114331
:1004D00013480160704700B5C0B2002807D00F482C
:1004E00000688021490401430C48016005E00B4885
:1004F00000680E4901400948016000BD0021084A1A
:10050000126811000322914308430100044801606E
:100510007047174801680C200840704700100240DF
:100520000410024020100240FFFFC2FFFFFFFFFE49
:1005300000B5C9B2002905D02249096808432149FC
:10054000086004E01F49096881431E48016000BD3E
:1005500000B5C9B2002905D01B49096808431A49EA
:10056000086004E01849096881431748016000BD2C
:100570000410024010B50022002300210400E4B260
:100580006409E4B22200002A02D110490B680BE092
:10059000012A02D10A490B6806E0022A02D10C495D
:1005A0000B6801E00B490B68C0B2C206D20ED34003
:1005B000D80701D5012100E000210800C0B210BD1C
:1005C00020100240141002401C1002400010024093
:1005D000241002403410024070B500220023002491
:1005E00000252A0046E0012393400C681C409C42F1
:1005F0003FD10B79012B02D00B79022B19D18368E3
:100600000324150002267543AC40A343836083682E
:100610004C79150002267543AC401C4384608388E6
:1006200001249440A343838083888C7994401C43A5
:10063000848003680324150002267543AC40A3435D
:10064000036003680C79150002267543AC401C4317
:100650000460C3680324150002267543AC40A3431D
:10066000C360C368CC79150002267543AC401C43B7
:10067000C460521C102AB6D370BD00B50200002021
:10068000128A89B21140002901D0012000E0002027
:10069000C0B200BD00B5C0B2002807D0074800684E
:1006A0008021490001430548016005E003480068D6
:1006B000034901400148016000BD00000070004096
:1006C000FFFEFFFF0022030A8B420BD203098B427D
:1006D00019D243088B422ED2411A00D20146524110
:1006E00010467047FF2209023FD012068B4205D305
:1006F000121209028B4201D31212090203098B4222
:1007000019D300E0090AC3098B4201D3CB01C01AF7
:10071000524183098B4201D38B01C01A52414309D4
:100720008B4201D34B01C01A524103098B4201D3C2
:100730000B01C01A5241C3088B4201D3CB00C01A2F
:10074000524183088B4201D38B00C01A52414308A7
:100750008B4201D34B00C01A5241884200D3401A49
:100760005241CFD201461046704708B500F016F846
:1007700008BD38B4012100220368001D002B0BD0F6
:100780000468001D0C4202D04D466D1E64192260A3
:10079000241D1B1FF0D0FAE732BC70477047FEE7FC
:1007A00080B54F480068012101434D4801604D4824
:1007B00000684D4901404B480160494800684B4979
:1007C00001404748016046480068494901404448A3
:1007D000016044480068474901404248016046487A
:1007E00000680F2188434449086044480068444930
:1007F0000140424801604348006801218843414963
:10080000086041480021016000F001F801BDC0B559
:1008100000200190002000903148006880214902AA
:1008200001432F4801602E4800688021890208405A
:1008300000900198401C01900098002804D1019874
:10084000A021C9008842EED125480068800302D566
:100850000120009001E000200090009801283DD187
:100860002A48006810210143284801602748006891
:1008700001210143254801601A481A4909680160AD
:10088000184818490968016016480068194901406C
:100890001448016013480068882149030143114846
:1008A00001600F4800688021490401430C48016041
:1008B0000B4800688001FBD50A4800680321884383
:1008C00008490860074800680221014305480160A3
:1008D000044800680C2101400829F9D103BD00003B
:1008E00000100240041002400CB8FFF8FFFFF6FEB3
:1008F000FFFFFBFFFFFFC0FF2C1002403010024043
:10090000ACFEFFFF341002400810024000200240FD
:1009100010B5074979441831064C7C44163404E07C
:10092000081D0A68891888470100A142F8D110BD46
:1009300008000000140000003BFEFFFF0400000060
:10094000000000200000000000F00BF8002801D09B
:10095000FFF7DEFF0020C046C046FFF75DFC00F059
:1009600002F80120704780B500F002F801BDFEE7F3
:100970000746384600F002F8FBE7FEE780B5C046C0
:10098000C046024A11001820ABBEFBE72600020059
:10099000704700B5FEE77047704780B5FFF710FC61
:1009A00001BDFEE70148804701480047A107000854
:1009B000B5090008C046C046C046C046FFF7C4FFA0
:1009C000FEE7FEE7FEE7FEE7FEE7FEE7FEE7FEE7FF
:1009D000FEE7FEE7FEE7FEE7FEE7FEE7FEE7FEE7EF
:1009E000FEE7FEE7FEE7FEE7FEE7FEE7FEE7FEE7DF
:0409F000FEE700001E
:04000005080009B531
:00000001FF
